:020000021000EC
:1000000000000110F5620100E16501001902010024
:10001000E1650100E1650100E16501006E03F7EFB4
:10002000000000000000000000000000E17201007C
:10003000E165010000000000E1730100E1650100DD
:10004000E1650100E1650100E1650100E165010094
:10005000E1650100E1650100E1650100E165010084
:10006000E1650100E1650100E1650100E165010074
:10007000E165010000000000E1650100E1650100AB
:10008000E1650100E1650100E1650100E165010054
:10009000E1650100E1650100E1650100E165010044
:1000A000E1650100E1650100E1650100E165010034
:1000B000E1650100E1650100E1650100E165010024
:1000C000E1650100E1650100E1650100E165010014
:1000D000E1650100E1650100E1650100E165010004
:1000E000E1650100A4F5010000000010BC0600005D
:1000F000A4F501000000002000000000C006001070
:10010000442D0000000000200000000086B0002305
:100110000593059A13465B0013449B001D4A134444
:100120001D4A934233D21B49059A13465B00134480
:100130009B000B441B6803931649059A13465B000A
:1001400013449B000B445B6802931249059A1346C3
:100150005B0013449B000B4408331B68019300238E
:100160000493049A019B9A420DD2049B9B00039A2C
:100170001A44049B9B0002990B4412681A60049B6A
:1001800001330493EDE7059B01330593C1E700BFFD
:1001900006B07047E4000100FC00010084B00023B9
:1001A0000393039BDB00134A1344134A93421ED26A
:1001B000104A039B52F8333001930E4A039BDB0035
:1001C00013445B68009300230293029A009B9A42B7
:1001D00009D2029B9B00019A134400221A60029BE1
:1001E00001330293F1E7039B01330393D9E700BF87
:1001F00004B07047FC0001000C010100DFF814009E
:10020000016841F470010160BFF34F8FBFF36F8F3E
:1002100000BF704788ED00E01EF0040F0CBFEFF345
:100220000880EFF309808169004A1047A966010040
:1002300000BF7047FFFFFFFFFFFFFFFFFFFFFFFF54
:10024000FFFFFFFFFFFFFFFFFFFFFFFFFFFFFFFFBE
:10025000FFFFFFFFFFFFFFFFFFFFFFFFFFFFFFFFAE
:10026000FFFFFFFFFFFFFFFFFFFFFFFFFFFFFFFF9E
:10027000FFFFFFFFFFFFFFFFFFFFFFFFFFFFFFFF8E
:10028000FFFFFFFFFFFFFFFFFFFFFFFFFFFFFFFF7E
:10029000FFFFFFFFFFFFFFFFFFFFFFFFFFFFFFFF6E
:1002A000FFFFFFFFFFFFFFFFFFFFFFFFFFFFFFFF5E
:1002B000FFFFFFFFFFFFFFFFFFFFFFFFFFFFFFFF4E
:1002C000FFFFFFFFFFFFFFFFFFFFFFFFFFFFFFFF3E
:1002D000FFFFFFFFFFFFFFFFFFFFFFFFFFFFFFFF2E
:1002E000FFFFFFFFFFFFFFFFFFFFFFFFFFFFFFFF1E
:1002F000FFFFFFFFFFFFFFFFFFFFFFFFFFFFFFFF0E
:10030000F8B500BFF8BC08BC9E4670475103010019
:10031000291101001552010051650100959D010050
:10032000F8B500BFF8BC08BC9E46704710B5054C38
:10033000237833B9044B13B10448AFF30080012391
:10034000237010BDC006001000000000A4F50100DD
:1003500008B5034B1BB103490348AFF3008008BD48
:1003600000000000C4060010A4F5010030B583B001
:10037000754601900B468DF8033013468DF8023018
:100380002B4619460C4806F0B5FA019B9DF8032050
:100390001A70019B9DF802205A70019B9DF8032062
:1003A0009A70019C2B461946034806F0B7FA23467B
:1003B000184603B030BD00BF6D03010070B582B0B8
:1003C000764601900B468DF80330334619461448A3
:1003D00006F090FA019B134A1C4615460FCD0FC438
:1003E0000FCD0FC42B682360019B0F4A243307CA2B
:1003F00083E80700019B0D4A303307CA83E80700F2
:10040000019B9DF8032083F83C20019C334619464C
:10041000034806F083FA2346184602B070BD00BFB9
:10042000BD03010064CB010088CB010094CB010027
:1004300070B5764633461946074806F05BFA074B17
:10044000D3E9004533461946034806F067FA2346C8
:100450002C461846214670BD31040100E00600100C
:1004600070B57446234619460C4806F043FA0C4B07
:100470001B6898474FF47A724FF000030CF0A0F815
:1004800002460B4615461E4623461946034806F00B
:1004900045FA2B4634461846214670BD61040100DA
:1004A0000000001030B583B0754601902B46194608
:1004B000064806F01FFA00242B461946034806F0AA
:1004C0002DFA2346184603B030BD00BFA504010035
:1004D00038B5744623461946074806F00BFA002043
:1004E000FFF7E0FF03461D4623461946024806F083
:1004F00015FA2B46184638BDD1040100F0B589B075
:100500007546CDE900012B4619462B4806F0F2F955
:10051000DDE90034CDE906348DF808602B46194634
:10052000264806F0E7F94FF000034FF00004CDE94C
:100530000434DDE90634B4F1FF3F08BFB3F1FF3FF7
:1005400006D14FF0FF334FF0FF34CDE904340AE019
:10055000FFF786FF0A460146DDE906345E1844EBE4
:100560000207CDE9046701230393FFF779FF0A46E9
:100570000146DDE90434A24208BF994234BF012399
:100580000023DBB2002B08D002AB1846FFF78AFF2E
:100590000346002BE9D000230393039C2B46194606
:1005A000064806F0BBF92B461946034806F0B6F993
:1005B0002346184609B0F0BDFD040100A50E010058
:1005C00010B582B07446CDE90001234619460748AC
:1005D00006F090F9DDE90001FFF790FF2346194688
:1005E000024806F09BF900BF02B010BDC105010032
:1005F00030B583B0754601902B461946134806F076
:1006000079F9019B9A68019B9B681B6830331B68D2
:100610001046984703461A46012393401C46019B07
:100620009A68019B9B681B682C331B68104698478F
:1006300003461A46064B53F822309C612B46194656
:10064000024806F06BF900BF03B030BDF1050100B0
:100650001400001030B583B0754601902B46194642
:10066000134806F047F9019B9A68019B9B681B6839
:1006700030331B681046984703461A4601239340BF
:100680001C46019B9A68019B9B681B682C331B6866
:100690001046984703461A46064B53F82230DC6151
:1006A0002B461946024806F039F900BF03B030BDA9
:1006B000550601001400001010B582B07446019078
:1006C0000B468DF80330234619460B4806F012F905
:1006D0009DF80330002B03D00198FFF789FF02E05B
:1006E0000198FFF7B7FF23461946034806F016F9AD
:1006F00000BF02B010BD00BFB906010030B583B025
:10070000754601902B461946064806F0F3F8019C01
:100710002B461946034806F001F92346184603B054
:1007200030BD00BFFD06010030B585B075460190B3
:100730002B461946174806F0DDF8019BDB6A184680
:10074000FFF7DCFF0246144B53F82230DB680393BB
:10075000042302932B461946104806F0CBF80122D9
:10076000029B02FA03F31A46039B1340002B14BFAB
:1007700001230023DCB22B461946084806F0CEF8C8
:100780002B461946034806F0C9F82346184605B01B
:1007900030BD00BF290701002C000010510F0100DF
:1007A00030B585B0754601900B46ADF802302B464A
:1007B0001946144806F09EF8019BDB6A1846FFF7BD
:1007C0009DFF03460393104A039B52F82330BDF864
:1007D00002209A600198FFF7A7FF0346002B01D083
:1007E00000BFF7E7084A039B52F823309B689CB28E
:1007F0002B461946034806F091F82346184605B0E3
:1008000030BD00BFA10701002C00001010B586B05C
:1008100074460390029101920093234619461E48A4
:1008200006F068F8039BDB68019AD2B211461846BD
:10083000FFF742FF039B9B681846FFF70BFF00235F
:100840000593059A009B9A4218D2009A059BD31AE9
:1008500003F10053013BDB00029A22FA03F38DF807
:100860001330039B5B689DF8132092B21146184623
:10087000FFF796FF059B01330593E2E7039B9B6817
:100880001846FFF7B5FE23461946034806F046F81A
:1008900000BF06B010BD00BF0D08010010B582B04A
:1008A00074460190234619460E4806F023F8019B32
:1008B0001A68019B1B681B680C331B68104698471D
:1008C000019B1A68019B1B681B6810331B6810464C
:1008D000984723461946034806F020F800BF02B0A7
:1008E00010BD00BF9D08010010B582B07446019094
:1008F00023461946094805F0FDFF019B1A68019B34
:100900001B681B6820331B6810469847234619460E
:10091000024806F003F800BF02B010BDE90801006C
:1009200010B582B07446019023461946094805F077
:10093000E1FF019B1A68019B1B681B6818331B6849
:100940001046984723461946024805F0E7FF00BFC6
:1009500002B010BD2109010010B582B074460190AB
:10096000234619460E4805F0C5FF019B03F22C7380
:100970001846FFF793FF019B03F22C731846FFF70D
:10098000CFFF019B03F22C731846FFF7ADFF234600
:100990001946034805F0C2FF00BF02B010BD00BFFA
:1009A0005909010030B585B0754601902B461946AE
:1009B000294805F09FFF294804F040FC284804F02E
:1009C00069FC274804F090FC264804F063FC2548A5
:1009D00004F08AFC244804F05DFC234804F084FC05
:1009E000224804F057FC214804F07EFC204804F023
:1009F00051FC1F4804F078FC1E4804F01FFC1E4800
:100A000004F01CFC1D4BD3F8BC301C4A43F0080317
:100A1000C2F8BC30194BD3F8CC30184A43F0080365
:100A2000C2F8CC30164804F009FC164804F006FC65
:100A3000082300220821144800F052FC03468DF8D8
:100A40000F309DF80F402B461946034805F066FF0E
:100A50002346184605B030BDA509010068070010FF
:100A60006C07001070070010740700107807001062
:100A70007C070010800700108407001000C00240AF
:100A8000880700108C0700102807001010B582B0EE
:100A9000744601900B468DF80330234619461848DA
:100AA00005F028FF174804F01FFC174804F060FC0D
:100AB000034683F00103DBB2002B00D0F5E71348B7
:100AC00004F034FC0321124800F0AAFC9DF8033026
:100AD00019460F4800F0A4FCFF210D4800F0A0FCCF
:100AE000FF210B4800F09CFC084804F0FDFB234666
:100AF0001946034805F012FF00BF02B010BD00BF49
:100B00008D0A010078070010680700106C070010BC
:100B10002807001010B582B0744601900B468DF87E
:100B200003301346ADF80030234619461B4805F044
:100B3000E1FE1B4804F0D8FB1A4804F019FC0346F8
:100B400083F00103DBB2002B00D0F5E7164804F078
:100B5000EDFB0221154800F063FC9DF803301946B7
:100B6000124800F05DFCBDF800301B12DBB21946E4
:100B70000E4800F055FCBDF80030DBB219460B48BA
:100B800000F04EFC084804F0AFFB2346194603482A
:100B900005F0C4FE00BF02B010BD00BF150B010080
:100BA00078070010680700106C0700102807001075
:100BB00010B586B0744603900291009313468DF8E9
:100BC000073023461946144805F094FE134804F0F4
:100BD0008BFB134804F0AAFB009B05939DF80720AC
:100BE000009B1A44059B9A420BD9059B029A134419
:100BF0001B7819460B4800F013FC059B0133059345
:100C0000ECE7074804F070FB23461946024805F05C
:100C100085FE00BF06B010BDB10B01006C070010CF
:100C2000780700102807001010B582B074460190B4
:100C300023461946134805F05DFE134804F076FB81
:100C40004FF064004FF00001FFF7BAFC00210F489D
:100C500000F0E6FB0C4804F047FB0D4804F088FB6D
:100C6000034683F00103DBB2002B00D0F5E70198C7
:100C700000F010F823461946024805F04FFE00BF69
:100C800002B010BD290C01007C07001028070010DD
:100C90006807001010B582B07446019023461946CB
:100CA0002F4805F027FE40F6040200210198FFF7C7
:100CB00031FF4FF064004FF00001FFF781FC4FF46B
:100CC000086200210198FFF725FF4FF440420321FD
:100CD0000198FFF71FFF552202210198FFF71AFF25
:100CE00044F240020B210198FFF714FF1D4804F065
:100CF0003FFB034683F00103DBB2002B00D0F5E796
:100D00004FF4086200210198FFF704FF4FF44042BE
:100D100003210198FFF7FEFE552202210198FFF7FB
:100D2000F9FE44F240020B210198FFF7F3FE002187
:100D30000198FFF7ABFE03210198FFF7A7FE022100
:100D40000198FFF7A3FE0B210198FFF79FFE2346B2
:100D50001946034805F0E2FD00BF02B010BD00BF18
:100D6000950C01006807001030B583B074460190FF
:100D700023461946084805F0BDFD084804F0F8FA76
:100D800003461D4623461946034805F0C7FD2B467A
:100D9000184603B030BD00BF690D010068070010A0
:100DA00030B591B07546019000912B4619463848F0
:100DB00005F0A0FD019B10331846FFF7CDFD03ABF6
:100DC000009918460BF07CFA03468DF83F309DF8E9
:100DD0003F30002B51D103AB2E4918460BF006FBD8
:100DE00003468DF83F309DF83F30002B3DD1294B15
:100DF0005B7A002B39D0274B1B7A03F01003002BB2
:100E00001CD000980BF0A4FE0E90009A0E9B134489
:100E1000214A2249184607F009FD00990198FFF779
:100E2000BFFF03468DF83F309DF83F30002B1BD1AC
:100E3000009A0E9B134400221A70CCE79DF83E30B6
:100E40001B0203F5FB63019A1344134918460BF088
:100E500077FE114A0099124807F0C2FC9DF83E3017
:100E600001338DF83E30B6E700BF019B9DF83E2070
:100E70001A7103AB18460BF093FA9DF83F402B46CE
:100E80001946034805F04AFD2346184611B030BD07
:100E9000A10D01009007001099070010A0CB0100E0
:100EA000A4CB01002DE9304888B07546CDE9020198
:100EB0008DF804202B461946244805F01BFD4FF001
:100EC00000034FF00004CDE90634DDE90234B4F14B
:100ED000FF3F08BFB3F1FF3F06D14FF0FF334FF0A4
:100EE000FF34CDE906340BE0FFF7BAFA0A460146B3
:100EF000DDE9023413EB010B44EB020CCDE906BC37
:100F000001230593FFF7ACFA0A460146DDE90634F2
:100F1000A24208BF994234BF01230023DBB2002B59
:100F200008D001AB1846FFF7BDFA0346002BE9D005
:100F300000230593059C2B461946044805F0EEFC5A
:100F40002346184608B0BDE8308800BFA50E010052
:100F500030B583B07546019000912B4619460C4878
:100F600005F0C8FC0122009B02FA03F31A46019B1C
:100F70001340002B14BF01230023DCB22B4619467B
:100F8000034805F0CBFC2346184603B030BD00BF34
:100F9000510F010010B582B07446019000912346B4
:100FA0001946524805F0A6FC019B012B40F09580A4
:100FB000009B4FF6FF72934240F08F804C4B1B68B2
:100FC00003F00103002B52D1494B01221A60494B17
:100FD0001B681833484A1360464B1B681C33464A4B
:100FE0005360444B1B682033434A9360414B1B685A
:100FF0002433414AD3603F4B5B6818333E4A136148
:101000003C4B5B681C333C4A53613A4B5B68203372
:10101000394A9361374B5B682433374AD361354B88
:101020009B681833344A1362324B9B681C33324A34
:101030005362304B9B6820332F4A93622D4B9B6841
:1010400024332D4AD3622B4BDB6818332A4A1363AF
:10105000284BDB681C33284A5363264BDB6820335C
:10106000254A9363234BDB682433234AD36300214F
:101070002248FFF7A3F9002200212148FFF776F963
:101080001C2201211F48FFF771F9172201211E4878
:10109000FFF76CF9022202211C48FFF767F91422BE
:1010A00001211B48FFF762F9072202211948FFF7C7
:1010B0005DF91D2200211848FFF758F91E22002172
:1010C0001648FFF753F90F2201211548FFF74EF993
:1010D000132201211348FFF749F923461946034813
:1010E00005F01CFC00BF02B010BD00BF950F010051
:1010F000A807001004000010E806001028070010E0
:10110000680700106C0700107007001074070010CB
:10111000780700107C07001080070010840700107B
:10112000880700108C07001010B574462346194636
:10113000064805F0DFFB4FF6FF710120FFF72AFF9D
:1011400023461946014805F0E9FB10BD29110100AD
:1011500010B582B07446019023461946124805F036
:10116000C9FB019B93F83C301946104807F038FB47
:101170000F4BD3F8C430019A92F83C201146019AE3
:101180000C3152F82120012101FA02F21146084ADD
:101190000B43C2F8C43023461946034805F0BEFB92
:1011A00000BF02B010BD00BF51110100ACCB010067
:1011B00000C00F4010B582B0744601900B468DF808
:1011C0000330234619461B4805F094FB1A4805F0E6
:1011D00061FB019B93F83C301A46184B53F82230C0
:1011E0001A69019B93F83C301946144B53F821308F
:1011F00042F004021A61019B93F83C301A460F4BEF
:1012000053F822301A689DF803301B021946019BDF
:1012100093F83C301846094B53F820300A431A60C3
:1012200023461946034805F079FB00BF184602B073
:1012300010BD00BFB5110100C0CB01003800001087
:1012400030B585B0754601902B461946224805F009
:1012500051FB224805F01EFB00230393039B022B46
:1012600031DC019B93F83C301946019A0B465B0038
:101270000B4403990B4452F823301A68019B93F8EE
:101280003C30019908339B000B445B68DB431A40F8
:10129000019B93F83C30019908339B000B445B6839
:1012A0001C46019B93F83C301846019903465B00AD
:1012B00003440398034451F8233022431A60039BEC
:1012C00001330393CAE72B461946034805F026FB72
:1012D00000BF05B030BD00BF41120100D4CB0100FA
:1012E00030B585B075460190084611461A4603464A
:1012F0008DF803300B468DF8023013468DF801301F
:101300002B461946434805F0F5FA0198FFF720FFF0
:101310009DF8013019460198FFF74CFF03468DF800
:101320000F309DF80F30002B6AD00198FFF788FF2F
:101330009DF803301946384807F052FA019B93F89C
:101340003C301A46354B53F822301A689DF803306A
:10135000013B1946019B93F83C3018462F4B53F83C
:1013600020300A431A60019B93F83C301A462B4BFD
:1013700053F822301A689DF802301B011946019B70
:1013800093F83C301846254B53F820300A431A6036
:10139000019B93F83C301A46204B53F822301A68D0
:1013A000019B93F83C3019461C4B53F8213042F016
:1013B00040021A60019B93F83C301A46174B53F8D1
:1013C00022301A68019B93F83C301946134B53F8AE
:1013D000213042F080021A60019B93F83C301A469B
:1013E0000E4B53F822305A68019B93F83C30194653
:1013F0000A4B53F8213042F002025A60012400E007
:1014000000242B461946034805F088FA234618465F
:1014100005B030BDE1120100F0CB01003800001032
:1014200030B583B0754601900B468DF803302B46DE
:101430001946194805F05EFA019B93F83C301A46AC
:10144000164B53F822309DF803209A60019B93F8C5
:101450003C301A46114B53F82230DB6803F010037E
:10146000002B14BF01230023DBB2002B01D000BFEF
:10147000ECE7019B93F83C301A46084B53F82230B6
:101480009B68DCB22B461946034805F047FA234611
:10149000184603B030BD00BF211401003800001011
:1014A00000B58BB0034600918DF8073005F058FA6F
:1014B00003461946314807F093F905F03DFA0790C5
:1014C00005F04EFA069000230993069B013B099A0A
:1014D0009A420DD2099B9B00079A13441B681A4637
:1014E0000999274807F07CF9099B01330993ECE738
:1014F000009B002B06D0069B013B009A1946204812
:1015000007F06EF99DF80730002B33D01D4A03AB6E
:1015100007CA83E807001C4805F0BCF903AB19466D
:101520001A4807F05DF900230893069B013B089ACF
:101530009A4212D2089B002B02D0202005F08EF98F
:10154000089B9B00079A13441B681946104807F034
:1015500047F9089B01330893E7E7009B002B03D072
:1015600000990C4807F03CF90B4805F093F90B483B
:1015700005F090F900BF0BB05DF804FB40CC010012
:1015800054CC010030CD010064CC01009CCC0100A2
:10159000C4CC0100CCCC0100D4CC0100DCCC0100D7
:1015A00082B00190034A019B1A60019B184602B069
:1015B000704700BFC4D7010000B583B00190019B04
:1015C0001846FFF7EDFF044A019B1A60019B18467D
:1015D00003B05DF804FB00BFA0D7010000B585B0E3
:1015E00001900B468DF803300023039300210198EE
:1015F00000F0CEF89DF803300C2B16D99DF803307F
:101600009BB21A460C21019800F0ACF903904FF4FC
:101610008071019800F0D6F89DF80330104A02FB63
:1016200003F31A460F4B1A6006E00021019800F000
:10163000C9F80C4B0C4A1A600121019800F04AFAD3
:10164000019B1B6804331B68012101989847002106
:10165000019800F073FA039B184605B05DF804FB8F
:1016600040420F0048000010001BB70000B583B0D7
:1016700001900B468DF803309DF80330042B0DD9F3
:10168000AE230B4A0B490C4807F0AAF80B4805F0AB
:1016900001F900210120FFF703FFFEE7084B1B685B
:1016A0009DF80320C3F8A82100BF03B05DF804FB38
:1016B00038D9010004D401003CCD0100DCCD01008B
:1016C0004400001082B00190034B1B68D3F8A8318E
:1016D000184602B0704700BF4400001082B001906D
:1016E000024B1B68184602B0704700BF480000104C
:1016F00000B585B00190019B1B6808331B680198F9
:101700009847029000230393029B002B0AD0019B71
:101710001B680C331B68019898470246029BB2FB7A
:10172000F3F30393039B184605B05DF804FBFFFF3A
:1017300084B001900091094B1B68D3F8C430009A23
:101740001268012101FA02F213430393034B1B6851
:10175000039AC3F8C42000BF04B0704744000010CF
:1017600084B001900091094B1B68D3F8C430009AF3
:101770001268012101FA02F213400393034B1B6824
:10178000039AC3F8C42000BF04B07047440000109F
:1017900084B001900B46ADF80230BDF802300393DF
:1017A000074B1B68D3F80C3123F00101044B1B6875
:1017B000039A0A43C3F80C2100BF04B0704700BF6E
:1017C0004400001082B001900B46ADF80230084B87
:1017D0001B68D3F8043123F48071BDF80220044B58
:1017E0001B680A43C3F8042100BF02B0704700BF62
:1017F0004400001082B001900B46ADF80230084B57
:101800001B68D3F8083123F44071BDF80220044B63
:101810001B680A43C3F8082100BF02B0704700BF2D
:101820004400001082B001900B46ADF80230084B26
:101830001B68D3F8B43123F44071BDF80220044B87
:101840001B680A43C3F8B42100BF02B0704700BF51
:101850004400001000B587B001900B46ADF802308F
:101860001346ADF80030BDF80030B3F5C07F03D2A9
:10187000BDF800300C2B0DD8FF23344A34493548CD
:1018800006F0AEFF344805F005F800210120FFF70F
:1018900007FEFEE701238DF81730BDF80030BDF8D4
:1018A0000220B3FBF2F102FB01F29B1A9BB2002B68
:1018B00009D0BDF80020BDF80230B2FBF3F39BB2B3
:1018C0000133049307E0BDF80020BDF80230B2FBFD
:1018D000F3F39BB204930123ADF80E309DF817305B
:1018E000002B2ED0049B9BB2BDF8022012FB03F309
:1018F0009BB2BDF80E2012FB03F39BB25B00ADF868
:101900000C30BDF80C309B2B03D900238DF8173019
:10191000E4E7BDF80E305B00ADF80E30BDF80E30D8
:10192000072BDBD940F21B13084A0C490C4806F080
:1019300057FF094804F0AEFF00210120FFF7B0FD7A
:10194000FEE7049B184607B05DF804FBE0D90100F0
:101950001CD40100F4CD0100DCCD010034D4010021
:10196000E4CE010010B58AB001900B46ADF802300C
:101970001346ADF800300123ADF81A30FEF770FDC4
:101980000A46014611F57A7342F10004CDE90434A8
:10199000FEF766FDCDE90801BDF80020BDF8023074
:1019A00019460198FFF756FF0390BDF80220039BEC
:1019B00002FB03F3079300210198FFF7E9FE0021E2
:1019C0000198FFF7FFFE00210198FFF713FF0021A8
:1019D0000198FFF727FF3A4B1B68D3F8843023F0B8
:1019E0001F01039B5A1E364B1B680A43C3F8842011
:1019F000334B1B68D3F8843023F06002BDF81A30F3
:101A00005B0119462E4B1B680A43C3F884202C4BFC
:101A10001B68D3F880202A4B1B6842F00102C3F8F0
:101A20008020274B1B68AA22C3F88C20244B1B68FC
:101A30005522C3F88C20224B1B68D3F8883003F45E
:101A40008063002B09D1DDE90812DDE90434A242EC
:101A500008BF994201D2012300E00023002B04D0EB
:101A6000FEF7FEFCCDE90801E5E7154B1B68D3F84E
:101A7000883003F48063002B09D1DDE90812DDE929
:101A80000434A24208BF994201D3012300E000239D
:101A9000002B0ED040F243130A4A0B490B4806F0C4
:101AA0009FFE0B4804F0F6FE00210120FFF7F8FC32
:101AB000FEE7BDF80030079AD31A18460AB010BDE9
:101AC0004400001084D901004CD401008CCF0100E7
:101AD000DCCD010000B583B001900B468DF80330DA
:101AE0009DF803301F2B0ED940F26F130E4A0F4999
:101AF0000F4806F075FE0F4804F0CCFE00210120CF
:101B0000FFF7CEFCFEE70C4B1B68D3F8043123F043
:101B10001F019DF80320084B1B680A43C3F80421EA
:101B200000BF03B05DF804FB3CDA010064D401009F
:101B300034D00100DCCD01004400001082B00190DF
:101B40000B468DF80330084B1B68D3F8003123F0A7
:101B500001019DF80320044B1B680A43C3F80021D0
:101B600000BF02B0704700BF4400001030B583B022
:101B7000754601902B461946074804F0BBFE074AFC
:101B8000019B1A60019C2B461946034804F0C6FECF
:101B90002346184603B030BD6D1B010064D7010019
:101BA00030B583B0754601900B468DF8033013466F
:101BB0008DF802302B4619460D4804F09BFE019B20
:101BC0001846FFF7D3FF0B4A019B1A60019B9DF853
:101BD00003201A71019B9DF802205A71019C2B462B
:101BE0001946034804F09AFE2346184603B030BD58
:101BF000A11B010028D70100F0B585B077460390FE
:101C00000B468DF80B303B461946174804F072FE20
:101C1000164B1B68039A12791046039A52791146A3
:101C200042010A4453F822109DF80B3003F00702DA
:101C30000E4B1C68039B1B791E46039B5B791D465C
:101C40000323009313460022039800F067FA02462C
:101C500073012B4444F823203B461946024804F004
:101C60005DFE00BF05B0F0BDF91B01004C00001087
:101C7000F0B587B0774603900B468DF80B303B46A6
:101C80001946194804F036FE9DF80B308DF81730D0
:101C9000164B1B68039A12791046039A5279114623
:101CA00042010A4453F822109DF8173003F0030252
:101CB0000E4B1C68039B1B791E46039B5B791D46DC
:101CC0000223009313460322039800F027FA0246EA
:101CD00073012B4444F823203B461946024804F084
:101CE0001DFE00BF07B0F0BD711C01004C000010CC
:101CF000F0B585B0774603900B468DF80B303B4628
:101D00001946164804F0F6FD154B1B68039A127924
:101D10001046039A5279114642010A4453F82210A0
:101D20009DF80B200E4B1C68039B1B791E46039BE2
:101D30005B791D460123009313460522039800F0AA
:101D4000EDF9024673012B4444F823203B46194623
:101D5000024804F0E3FD00BF05B0F0BDF11C010036
:101D60004C000010F0B585B0774603900B468DF817
:101D70000B303B461946164804F0BCFD154B1B685A
:101D8000039A12791046039A5279114642010A4485
:101D900053F822109DF80B200E4B1C68039B1B79F7
:101DA0001E46039B5B791D460123009313460622C2
:101DB000039800F0B3F9024673012B4444F8232042
:101DC0003B461946024804F0A9FD00BF05B0F0BD2E
:101DD000651D01004C000010F0B585B077460390FA
:101DE0000B468DF80B303B461946184804F082FD2F
:101DF000174B1B68039A12791046039A52791146C1
:101E000042010A4453F822109DF80B3083F001037D
:101E1000DBB21A460E4B1C68039B1B791E46039BC4
:101E20005B791D460123009313460722039800F0B7
:101E300075F9024673012B4444F823203B461946AA
:101E4000024804F06BFD00BF05B0F0BDD91D0100D4
:101E50004C000010F0B585B0774603900B468DF826
:101E60000B303B461946184804F044FD174B1B68DD
:101E7000039A12791046039A5279114642010A4494
:101E800053F822109DF80B3083F00103DBB21A46A1
:101E90000E4B1C68039B1B791E46039B5B791D46FA
:101EA0000123009313460822039800F037F90246F5
:101EB00073012B4444F823203B461946024804F0A2
:101EC0002DFD00BF05B0F0BD551E01004C000010F7
:101ED000F0B585B0774603900B468DF80B303B4646
:101EE0001946164804F006FD154B1B68039A127933
:101EF0001046039A5279114642010A4453F82210BF
:101F00009DF80B200E4B1C68039B1B791E46039B00
:101F10005B791D460123009313460922039800F0C4
:101F2000FDF8024673012B4444F823203B46194632
:101F3000024804F0F3FC00BF05B0F0BDD11E010063
:101F40004C000010F0B585B0774603900B468DF835
:101F50000B303B461946184804F0CCFC174B1B6865
:101F6000039A12791046039A5279114642010A44A3
:101F700053F822109DF80B3083F00103DBB21A46B0
:101F80000E4B1C68039B1B791E46039B5B791D4609
:101F90000123009313460822039800F0BFF802467D
:101FA00073012B4444F823203B461946024804F0B1
:101FB000B5FC00BF05B0F0BD451F01004C0000108E
:101FC000F0B585B0774603900B468DF80B303B4655
:101FD0001946164804F08EFC154B1B68039A1279BB
:101FE0001046039A5279114642010A4453F82210CE
:101FF0009DF80B200E4B1C68039B1B791E46039B10
:102000005B791D460123009313460922039800F0D3
:1020100085F8024673012B4444F823203B461946B9
:10202000024804F07BFC00BF05B0F0BDC11F0100F9
:102030004C000010F0B585B0774603900B468DF844
:102040000B303B461946164804F054FC154B1B68F0
:10205000039A12791046039A5279114642010A44B2
:1020600053F822109DF80B200E4B1C68039B1B7924
:102070001E46039B5B791D460123009313460A22EB
:10208000039800F04BF8024673012B4444F82320D8
:102090003B461946024804F041FC00BF05B0F0BDC4
:1020A000352001004C000010F0B585B07746039054
:1020B0000B468DF80B303B461946164804F01AFCC7
:1020C000154B1B68039A12791046039A52791146F0
:1020D00042010A4453F822109DF80B200E4B1C6855
:1020E000039B1B791E46039B5B791D4601230093CE
:1020F00013461022039800F011F8024673012B4496
:1021000044F823203B461946024804F007FC00BF70
:1021100005B0F0BDA92001004C00001030B587B01B
:10212000754603900291019200932B46194613487D
:1021300004F0E0FB0A9BC3F120034FF0FF3222FAC8
:1021400003F30593059A019B02FA03F3DB43029A1A
:1021500013400293009A059B1A40019B02FA03F375
:10216000029A13430293029C2B461946034804F03B
:10217000D5FB2346184607B030BD00BF1D21010026
:1021800030B583B0754601902B461946064804F0D9
:10219000B1FB019B1C792B461946034804F0BEFB9A
:1021A0002346184603B030BD8121010030B583B00D
:1021B000754601902B461946064804F09BFB019B8F
:1021C0005C792B461946034804F0A8FB23461846C1
:1021D00003B030BDAD21010030B583B07546034674
:1021E0008DF807302B461946064804F083FB9DF80E
:1021F00007402B461946034804F090FB2346184637
:1022000003B030BDD921010010B586B074460390EB
:10221000029101920093234619463E4804F06AFB5E
:10222000039B181D039B5B6814331B68039A127A87
:10223000920039490A4411469847029B002B0DD160
:102240008423364A3649374806F0CAFA364804F03D
:1022500021FB00210120FFF723F9FEE7039B1A1D54
:10226000039B5B6810331B68104698470246029B2D
:10227000B2FBF3F30593039B1B7A1A462B4B53F8DF
:102280002230DA68039B1B7A1946284B53F8213019
:1022900002F00102DA60039B1B7A1A46234B53F8C3
:1022A0002230D968059B5A00039B1B7A18461F4BA6
:1022B00053F820300A43DA60039B1B7A1A461B4B03
:1022C00053F822305A68039B1B7A1946174B53F870
:1022D000213042F001025A60039B1B7A1946144ACE
:1022E000019B42F82130039B1B7A1A46114B9856EA
:1022F000039B1B7A1A46104B53F82210009B0122B5
:1023000004F0A4F923461946024804F007FB00BF75
:1023100006B010BD092201007CD4010078DA01006A
:10232000A0D40100D0D00100DCCD010004000010D9
:10233000AC0700108CD4010090D4010030B583B0FC
:10234000754603468DF807302B461946064804F0BB
:10235000D1FA9DF807402B461946034804F0DEFAEF
:102360002346184603B030BD3D23010070B586B04A
:1023700076460390029111461A460B468DF80730B7
:1023800013468DF8063033461946324804F0B2FA47
:102390009DF806301846FFF7D1FF03468DF8173039
:1023A000039B1B7A1A462C4B53F822305A699DF82E
:1023B0001730072101FA03F3DB431946039B1B7A0D
:1023C0001846254B53F820300A405A61039B1B7A6C
:1023D0001A46214B53F822305A699DF807109DF890
:1023E000173001FA03F31946039B1B7A18461A4B60
:1023F00053F820300A435A61039B1B7A18469DF814
:102400001730164AA2FB03235B08DBB21946144AB5
:1024100083000B4452F823301968029B5A08039B2F
:102420001B7A1D469DF817300C48A0FB03035B0880
:10243000DBB21C460A48AB00234450F823300A4361
:102440001A6033461946034804F068FA00BF06B024
:1024500070BD00BF6D23010004000010ABAAAAAA42
:10246000E806001030B583B0754601902B4619463A
:10247000094804F03FFA019B1B7A1A46074B53F8B0
:1024800022309C682B461946034804F047FA23463D
:10249000184603B030BD00BF6524010004000010E1
:1024A00030B583B0754601902B461946074804F0B5
:1024B00021FA074A019B1A60019C2B4619460348E2
:1024C00004F02CFA2346184603B030BDA1240100C5
:1024D000A8D6010030B583B0754601900B468DF843
:1024E000033013468DF802302B461946164804F087
:1024F00001FA019B1846FFF7D3FF144A019B1A60AB
:10250000019B00221A71019B03F10C02019B9A604E
:10251000019B0C339DF802209DF803101846FFF72D
:102520003FFB9DF80330022B01D1012200E0002285
:10253000019B1A71019C2B461946034804F0EEF9E1
:102540002346184603B030BDD524010060D60100F3
:1025500030B583B0754601902B461946194804F0F2
:10256000C9F9019B9A68019B9B681B681B68002145
:1025700010469847019B9A68019B9B681B68303303
:102580001B681046984703461A4601239340DC43D4
:10259000019B9A68019B9B681B682C331B68104643
:1025A000984703461A46084B53F822301A682146CA
:1025B0000A401A602B461946024804F0AFF900BFE2
:1025C00003B030BD512501001400001030B583B0B8
:1025D000754601902B461946194804F08BF9019B6A
:1025E0009A68019B9B681B681B68002110469847EE
:1025F000019B9A68019B9B681B6830331B681046DF
:10260000984703461A46012303FA02F4019B9A688D
:10261000019B9B681B682C331B6810469847034638
:102620001A46084B53F822301A6821460A431A60AA
:102630002B461946024804F071F900BF03B030BDC3
:10264000CD2501001400001010B582B07446019031
:102650000B468DF80330234619460B4804F04AF91F
:102660009DF80330002B03D00198FFF7AFFF02E085
:102670000198FFF76DFF23461946034804F04EF911
:1026800000BF02B010BD00BF4926010030B583B0C5
:10269000754601902B461946154804F02BF9019B0D
:1026A0009A68019B9B681B6830331B6810469847EB
:1026B00003461A46012303FA02F4019B9A68019B20
:1026C0009B681B682C331B681046984703461A46C4
:1026D000084B53F822305A6921464A405A612B462A
:1026E0001946034804F01AF900BF03B030BD00BF1B
:1026F0008D2601001400001030B585B0754601909C
:102700002B461946184804F0F5F8019B9A68019B7E
:102710009B681B682C331B681046984703461A4673
:10272000124B53F822305C69019B9A68019B9B68AD
:102730001B6830331B6810469847034624FA03F39E
:1027400003F00103002B14BF012300238DF80F3089
:102750009DF80F402B461946034804F0DFF8234646
:10276000184605B030BD00BFF92601001400001066
:1027700030B583B0754601902B461946164804F0D3
:10278000B9F8019B9A68019B9B681B682C331B68F6
:102790001046984703461A46104B53F822305C699E
:1027A000019B9A68019B9B681B6830331B6810462D
:1027B0009847034624FA03F303F00103002B14BFE8
:1027C00001230023DCB22B461946034804F0A6F887
:1027D0002346184603B030BD7127010014000010D5
:1027E00030B583B0754601902B461946064804F073
:1027F00081F8019B9C682B461946034804F08EF82B
:102800002346184603B030BDE127010030B587B03C
:10281000754603902B461946174804F06BF8039B46
:102820001B79012B94BF01230023DBB28DF81730F5
:102830009DF8173083F00103DBB2002B10D0039B0F
:102840009A68039B9B681B682C331B68104698474B
:1028500003460093A623094A09490A4805F0C0FF28
:102860009DF817402B461946034804F057F82346B5
:10287000184607B030BD00BF0D2801001CD801006C
:10288000ACD4010090D1010070B582B076460190C1
:10289000009133461946114804F02CF80198FFF7CF
:1028A000B5FF009C019B1B791D46019B9A68019B0B
:1028B0009B681B6830331B681046984703461946CF
:1028C000074A6B010B4442F823403346194603483C
:1028D00004F024F800BF02B070BD00BF89280100D9
:1028E000BC07001030B583B0754601902B461946E1
:1028F0000F4803F0FFFF019B1B791C46019B9A6860
:10290000019B9B681B6830331B6810469847034641
:102910001946084A63010B44002142F823102B4654
:102920001946034803F0FAFF00BF03B030BD00BFF3
:10293000E5280100BC07001030B583B0754603469A
:102940008DF807302B461946064803F0D3FF9DF853
:1029500007402B461946034803F0E0FF234618467C
:1029600003B030BD3929010010B584B0744603901E
:102970000B468DF80B3023461946194803F0BAFF71
:102980000398FFF743FF9DF80B30012B08D0012B74
:1029900002D3022B08D00EE0039800F0B1F817E044
:1029A000039800F0EBF813E0039800F0A9F80398FF
:1029B00000F0E4F80CE09DF80B301846FFF7BCFF80
:1029C00003460093D223074A0749084805F008FF49
:1029D00023461946024803F0A1FF00BF04B010BD12
:1029E0006929010038D80100B8D4010020D20100C3
:1029F00010B584B0744603900B468DF80B30234617
:102A00001946194803F076FF0398FFF7FFFE9DF87B
:102A10000B30012B08D0012B02D3022B08D00EE083
:102A2000039800F0E9F817E0039800F023F913E0A9
:102A3000039800F0E1F8039800F01CF90CE09DF811
:102A40000B301846FFF778FF03460093F223074A3E
:102A50000749084805F0C4FE23461946024803F01A
:102A60005DFF00BF04B010BDF1290100E0D70100F7
:102A7000C4D4010020D2010010B584B07446039084
:102A8000029113468DF80730234619460B4803F090
:102A900031FF0398FFF7BAFE02990398FFF7F4FE9F
:102AA0009DF8073019460398FFF75EFF2346194645
:102AB000024803F033FF00BF04B010BD792A0100C3
:102AC00010B582B074460190234619460B4803F0B6
:102AD00011FF0198FFF79AFE0198FFF703FF019895
:102AE00000F08AF8019800F0C5F82346194603481B
:102AF00003F014FF00BF02B010BD00BFC12A0100E7
:102B000030B583B0754601902B461946194803F03D
:102B1000F1FE019B9A68019B9B681B6830331B6820
:102B20001046984703461A46012303FA02F0019B18
:102B30001B791946104A0B469B000B449B0013441B
:102B40000C331B681A680446019B1B7918460A4916
:102B500003469B0003449B000B440C331B68224339
:102B60001A602B461946034803F0D8FE00BF03B095
:102B700030BD00BF012B01005000001030B583B004
:102B8000754601902B461946194803F0B3FE019B88
:102B90009A68019B9B681B6830331B6810469847F6
:102BA00003461A46012303FA02F0019B1B791946DA
:102BB000104A0B469B000B449B00134410331B68C8
:102BC0001A680446019B1B7918460A4903469B0074
:102BD00003449B000B4410331B6822431A602B46AE
:102BE0001946034803F09AFE00BF03B030BD00BF92
:102BF0007D2B01005000001030B583B07546019068
:102C00002B461946194803F075FE019B9A68019BF3
:102C10009B681B6830331B681046984703461A466A
:102C200001239340D843019B1B791946104A0B4658
:102C30009B000B449B0013440C331B681A6804462A
:102C4000019B1B7918460A4903469B0003449B00DD
:102C50000B440C331B6822401A602B46194603486C
:102C600003F05CFE00BF03B030BD00BFF92B0100D4
:102C70005000001030B583B0754601902B461946C0
:102C8000194803F037FE019B9A68019B9B681B68FB
:102C900030331B681046984703461A460123934079
:102CA000D843019B1B791946104A0B469B000B44E5
:102CB0009B00134410331B681A680446019B1B7960
:102CC00018460A4903469B0003449B000B441033FB
:102CD0001B6822401A602B461946034803F01EFE6B
:102CE00000BF03B030BD00BF752C010050000010C4
:102CF00010B584B07446019023461946174803F076
:102D0000F9FD00238DF80F309DF80F30032B1DD8EF
:102D10009DF80F2013469B0013449B00019A134417
:102D200004331846FFF752FC9DF80F2013469B0012
:102D300013449B00019A134404331846FDF758FCD2
:102D40009DF80F3001338DF80F30DDE7234619462B
:102D5000024803F0E3FD00BF04B010BDF12C0100F8
:102D600010B584B0744603900B468DF80B302346A3
:102D70001946164803F0BEFD9DF80B30032B10D901
:102D80009DF80B3000933123114A1249124805F087
:102D900027FD124803F07EFD00210120FEF780FB95
:102DA000FEE79DF80B2013469B0013449B00039AFB
:102DB000134404331846FDF74DFC234619460348D7
:102DC00003F0ACFD00BF04B010BD00BF612D0100D9
:102DD00010D90100D0D40100C0D20100DCCD010027
:102DE00010B584B0744603900B468DF80B30234623
:102DF0001946164803F07EFD9DF80B30032B10D9C1
:102E00009DF80B3000933923114A1249124805F0FE
:102E1000E7FC124803F03EFD00210120FEF740FBD5
:102E2000FEE79DF80B2013469B0013449B00039A7A
:102E3000134404331846FDF7DBFB234619460348C9
:102E400003F06CFD00BF04B010BD00BFE12D010018
:102E5000E8D80100E0D40100C0D20100DCCD0100BF
:102E600010B584B0744603900B468DF80B301346B2
:102E70008DF80A30234619461B4803F03BFD9DF8A8
:102E80000B30032B10D99DF80B3000934223174AC7
:102E90001749184805F0A4FC174803F0FBFC002173
:102EA0000120FEF7FDFAFEE79DF80A30012B09D15B
:102EB000039B1B6804331B689DF80B201146039885
:102EC000984708E0039B1B6808331B689DF80B209C
:102ED00011460398984723461946034803F01EFD00
:102EE00000BF04B010BD00BF612E0100A0D80100DA
:102EF000F0D40100C0D20100DCCD010010B584B0D7
:102F0000744603900B468DF80B302346194616483D
:102F100003F0F0FC9DF80B30032B10D99DF80B301B
:102F200000935123114A1249124805F059FC1248E6
:102F300003F0B0FC00210120FEF7B2FAFEE79DF895
:102F40000B2013469B0013449B00039A1344043345
:102F50001846FFF79BFB23461946034803F0DEFCA7
:102F600000BF04B010BD00BFFD2E010074D80100E9
:102F700000D50100C0D20100DCCD010010B584B045
:102F8000744601900B468DF80330234619461A48C3
:102F900003F0B0FC00238DF80F309DF80F30032BA9
:102FA00022D89DF803209DF80F3042FA03F303F076
:102FB0000103002B09D0019B1B680C331B689DF893
:102FC0000F1001220198984708E0019B1B680C3301
:102FD0001B689DF80F100022019898479DF80F304C
:102FE00001338DF80F30D8E723461946024803F025
:102FF00095FC00BF04B010BD7D2F010030B585B039
:10300000754601902B461946194803F073FC0023BE
:10301000039300238DF80B309DF80B30032B1BD846
:103020009DF80B2013469B0013449B00019A134408
:1030300004331846FFF79CFB03461A469DF80B30F5
:1030400002FA03F31A46039B134303939DF80B30D4
:1030500001338DF80B30DFE7039BDCB22B461946BA
:10306000034803F05BFC2346184605B030BD00BFA3
:10307000FD2F010030B583B0754601902B461946EF
:10308000074803F037FC074A019B1A60019C2B4656
:103090001946034803F042FC2346184603B030BDEE
:1030A0007530010014D6010030B583B0754601902B
:1030B00000912B461946084803F01CFC074A019B67
:1030C0001A60019C2B461946034803F027FC23464F
:1030D000184603B030BD00BFA930010064D701001D
:1030E00030B583B07546019000912B4619460F48C4
:1030F00003F000FC019B009A11461846FFF7D4FF2D
:103100000B4A019B1A60009B1A79019B1A71009B64
:103110005A79019B5A71019C2B461946034803F0CA
:10312000FDFB2346184603B030BD00BFE13001006F
:1031300028D7010030B583B07546019000912B4629
:103140001946314803F0D6FB019B1846FFF792FF62
:10315000019B04331846FEF72FFA2C4A019B1A6094
:103160002B4A019B5A60019B03F11402019B9A6058
:10317000019B03F11C02019BDA60019B03F1240215
:10318000019B1A61019B03F114040098FDF7B6FA44
:10319000024613465B001344DB001E4A13441946E3
:1031A0002046FFF79DFF019B03F11C040098FDF7EB
:1031B000A5FA024613465B001344DB000833154AA8
:1031C000134419462046FFF78BFF019B03F12404AB
:1031D0000098FDF793FA024613465B001344DB00A8
:1031E00010330C4A134419462046FFF779FF019B20
:1031F000009ADA62019C2B461946034803F08EFBC5
:103200002346184603B030BD35310100C8D5010052
:10321000F0D5010014D5010070B586B07646019056
:1032200033461946304803F065FB019BDB6A1846BC
:10323000FDF764FA03460593019B181D019B5B682B
:1032400014331B68059A920028490A44114698478E
:10325000019B9868019B9B681B681B682449059A21
:103260000A44127811469847019BD868019BDB6895
:103270001B681B681E49059A0A4412781146984734
:10328000019B1869019B1B691B681B681849059AFB
:103290000A44127811469847164A059B52F8233083
:1032A0005B681449059A51F8224004930123039363
:1032B00033461946104803F01DFB0122039B02FA16
:1032C00003F31A46049B42EA0305334619460A48AB
:1032D00003F024FB656033461946034803F01EFBE8
:1032E00000BF06B070BD00BF193201005CD50100FF
:1032F00010D501002C000010D94C010010B586B08B
:103300007446039023461946124803F0F3FA01234A
:103310008DF8173000238DF8163000238DF8153006
:1033200030238DF81430072300220021039800F089
:103330005BF830230093002300220121039800F062
:1033400009FA23461946034803F0E8FA00BF06B01D
:1033500010BD00BFFD32010030B583B07546034695
:103360008DF807302B461946064803F0C3FA9DF83E
:1033700007402B461946034803F0D0FA2346184667
:1033800003B030BD5933010030B583B075460346F4
:103390008DF807302B461946064803F0ABFA9DF826
:1033A00007402B461946034803F0B8FA234618464F
:1033B00003B030BD8933010030B583B07546034694
:1033C0008DF807302B461946064803F093FA9DF80E
:1033D00007402B461946034803F0A0FA2346184637
:1033E00003B030BDB933010070B598B07446019098
:1033F000084611461A4603468DF803300B468DF8F1
:10340000023013468DF8013023461946754803F003
:1034100071FA019BDB6A1846FDF770F903461793B2
:10342000019B181D179B9B006F4A13441946FEF71A
:103430007FF99DF80230022B02D107238DF801306D
:103440006A4A179B52F823301E689DF801301846CF
:10345000FFF782FF03461946644A179B52F8235030
:1034600008960B468DF81F3000230693042305931E
:10347000234619465E4803F03DFA4FF0FF330493AC
:1034800020230393059BC3F120034FF0FF3222FA60
:1034900003F30293029A069B02FA03F3DB43089AB2
:1034A000134008939DF81F20029B1A40069B02FAC6
:1034B00003F3089A13430893089E234619464C4881
:1034C00003F02CFA2E60494A179B52F823301E68ED
:1034D0009DF802301846FFF757FF03461946434A46
:1034E000179B52F823500F960B468DF83B30042360
:1034F0000D9302230C93234619463D4803F0FAF935
:103500004FF0FF330B9320230A930C9BC3F120034E
:103510004FF0FF3222FA03F30993099A0D9B02FA46
:1035200003F3DB430F9A13400F939DF83B20099B55
:103530001A400D9B02FA03F30F9A13430F930F9E49
:10354000234619462A4803F0E9F92E60274A179BBB
:1035500052F823305E689DF803301846FFF72CFFC1
:1035600003461946214A179B52F8235016960B46DC
:103570008DF85730022314930123139323461946E1
:103580001B4803F0B7F94FF0FF3312932023119338
:10359000139BC3F120034FF0FF3222FA03F3109381
:1035A000109A149B02FA03F3DB43169A1340169306
:1035B0009DF85720109B1A40149B02FA03F3169AA9
:1035C00013431693169E23461946094803F0A6F99D
:1035D0006E6023461946034803F0A0F900BF18B0F7
:1035E00070BD00BFE93301005CD501002C00001064
:1035F000154D010070B596B07446019023461946EA
:10360000504803F077F90023ADF85630019BDB6A90
:103610001846FDF773F803461493019B181D149B7D
:103620009B00494A13441946FEF782F8474A149B07
:1036300052F823301B680793002306930423059355
:1036400023461946424803F055F94FF0FF330493DF
:1036500020230393059BC3F120034FF0FF3222FA8E
:1036600003F30293079A069BDA40029B02EA0305E2
:1036700023461946364803F051F9ADB2334A149B3C
:1036800052F823301B680D9304230C9302230B93F1
:10369000234619462E4803F02DF94FF0FF330A93C5
:1036A000202309930B9BC3F120034FF0FF3222FA32
:1036B00003F308930D9A0C9BDA40089B02EA030679
:1036C00023461946224803F029F9B3B25B019BB2A5
:1036D0002B449DB21D4A149B52F823305B68139310
:1036E000022312930123119323461946184803F02D
:1036F00001F94FF0FF33109320230F93119BC3F177
:1037000020034FF0FF3222FA03F30E93139A129B19
:10371000DA400E9B02EA0306234619460C4803F0E2
:10372000FDF8B3B21B029BB22B44ADF85630BDF886
:10373000565023461946034803F0F0F82B46184626
:1037400016B070BDF53501005CD501002C000010ED
:10375000894D010070B598B0744601900846114635
:103760001A4603468DF803300B468DF80230134697
:103770008DF80130234619466C4803F0BBF8019BD5
:10378000DB6A1846FCF7BAFF03461793019B181D26
:10379000179B9B00664A13441946FDF7C9FF654A0B
:1037A000179B52F823301B686249179A51F8225030
:1037B00008939DF803308DF81F30062306930123EC
:1037C0000593234619465C4803F094F84FF0FF3305
:1037D000049320230393059BC3F120034FF0FF3292
:1037E00022FA03F30293029A069B02FA03F3DB43E5
:1037F000089A134008939DF81F20029B1A40069BCD
:1038000002FA03F3089A13430893089E23461946C5
:10381000494803F083F82E60464A179B52F823303C
:103820001B684449179A51F822500F939DF80230B3
:103830008DF83B3007230D9301230C932346194643
:103840003D4803F057F84FF0FF330B9320230A93C2
:103850000C9BC3F120034FF0FF3222FA03F30993CC
:10386000099A0D9B02FA03F3DB430F9A13400F935F
:103870009DF83B20099B1A400D9B02FA03F30F9A17
:1038800013430F930F9E234619462B4803F046F827
:103890002E60284A179B52F823301B682549179A37
:1038A00051F8225016939DF801308DF857300823B7
:1038B00014930823139323461946204803F01AF85B
:1038C0004FF0FF33129320231193139BC3F1200376
:1038D0004FF0FF3222FA03F31093109A149B02FA6E
:1038E00003F3DB43169A134016939DF85720109B61
:1038F0001A40149B02FA03F3169A13431693169E6A
:10390000234619460D4803F009F82E60094A179B13
:1039100052F823309DF870201A6123461946034857
:1039200002F0FCFF00BF18B070BD00BF55370100AA
:103930005CD501002C000010DD4D0100154D01008B
:1039400070B594B07446019023461946584802F069
:10395000D1FF00231393019BDB6A1846FCF7CEFED0
:1039600003461293019B181D129B9B00514A13445E
:103970001946FDF7DDFE504A129B52F823301B69B1
:1039800007930023069308230593234619464B48C3
:1039900002F0B0FF4FF0FF33049320230393059B05
:1039A000C3F120034FF0FF3222FA03F30293079A88
:1039B000069BDA40029B02EA0305234619463F486C
:1039C00002F0ACFF3C4A129B52F823301B680D9367
:1039D00008230C9308230B9323461946374802F01B
:1039E00089FF4FF0FF330A93202309930B9BC3F108
:1039F00020034FF0FF3222FA03F308930D9A0C9B39
:103A0000DA40089B02EA0306234619462B4802F0D7
:103A100085FF33021D44284A129B52F823301B684D
:103A20000F9307230E9323461946254802F062FFA1
:103A300001220E9B02FA03F31A460F9B1340002B40
:103A400014BF01230023DEB2234619461C4802F0AE
:103A500065FF33461B041D44174A129B52F823305E
:103A60001B6811930623109323461946144802F04D
:103A700041FF0122109B02FA03F31A46119B1340E7
:103A8000002B14BF01230023DEB2234619460C4845
:103A900002F044FF33469B042B441393139D2346AB
:103AA0001946034802F03AFF2B46184614B070BD81
:103AB000413901005CD501002C000010894D010046
:103AC000510F010030B583B075460190084611468C
:103AD0001A4603468DF803300B468DF80230134624
:103AE0008DF801302B4619461A4802F003FF019A5F
:103AF00013789DF8201061F300031370019A137876
:103B00009DF8031061F341031370019A13789DF837
:103B1000021061F382031370019A13789DF801106B
:103B200061F3C3031370019A13786FF307131370D3
:103B3000019B9DF81C205A70019B9DF818209A70DB
:103B4000019C2B461946034802F0E8FE234618461E
:103B500003B030BDC53A010030B583B07546019061
:103B60002B461946154802F0C5FE019A13786FF3EB
:103B700000031370019A13786FF341031370019AD5
:103B800013786FF382031370019A13786FF3C303F2
:103B90001370019A13786FF307131370019B0022BF
:103BA0005A70019B00229A70019C2B4619460348CB
:103BB00002F0B4FE2346184603B030BD593B010065
:103BC00010B582B07446019023461946054802F0AC
:103BD00091FE23461946034802F0A0FE00BF02B042
:103BE00010BD00BFC13B010010B582B0744601900A
:103BF00023461946054802F07DFE23461946034830
:103C000002F08CFE00BF02B010BD00BFE93B010016
:103C100010B582B07446019023461946054802F05B
:103C200069FE23461946034802F078FE00BF02B041
:103C300010BD00BF113C010030B583B07546019046
:103C40002B461946074802F055FE074A019B1A60A9
:103C5000019C2B461946034802F060FE2346184695
:103C600003B030BD393C01009CD5010030B583B0B4
:103C7000754601902B4619461F4802F03BFE019BFA
:103C80001846FFF7D9FF1D4A019B1A60019B03F1FB
:103C90001002019B5A60019B03F14002019B9A6054
:103CA000019B03F15402019BDA60019B1033012157
:103CB0001846FFF73FFA019B4033162201211846B0
:103CC000FEF708FC019B5433192201211846FEF728
:103CD00001FC019B683340F2C1620021184608F0E4
:103CE0002BFE019C2B461946034802F017FE234683
:103CF000184603B030BD00BF6D3C010070D5010017
:103D000030B583B0754601902B461946064802F03F
:103D1000F1FD80242B461946034802F0FFFD23469F
:103D2000184603B030BD00BF013D010030B583B07F
:103D3000754601902B461946064802F0DBFD4024EB
:103D40002B461946034802F0E9FD2346184603B006
:103D500030BD00BF2D3D010010B588B07446059000
:103D600023461946154802F0C5FD07A80123029312
:103D70000123019301230093012301220121FFF775
:103D8000A1FE06AB07AA1268114619800233120C75
:103D90001A7023461946094802F0C0FD00239DF819
:103DA000182062F307039DF8192062F30F239DF892
:103DB0001A2062F31743184608B010BD593D0100A0
:103DC00010B582B07446019023461946374802F078
:103DD00091FD01230022AE210198FCF717FD02237B
:103DE00000224DF280510198FCF710FD02230022C1
:103DF0004AF63F010198FCF709FD022300224FF427
:103E000053410198FCF702FD012300224021019853
:103E1000FCF7FCFC0223002248F614510198FCF741
:103E2000F5FC01230022A1210198FCF7EFFC0123FE
:103E30000022C8210198FCF7E9FC022300224DF67C
:103E400012210198FCF7E2FC0223002248F2CF1174
:103E50000198FCF7DBFC022300224DF6F1110198DA
:103E6000FCF7D4FC022300224DF640310198FCF708
:103E7000CDFC019800F05EF801230022A4210198F6
:103E8000FCF7C4FC01230022A6210198FCF7BEFC2C
:103E900001230022AF210198FCF7B8FC2346194604
:103EA000024802F03BFD00BF02B010BDC13D010061
:103EB00010B584B074460390234619461C4802F09E
:103EC00019FD039B9B681846FEF780FB039BDB688C
:103ED0001846FEF77BFB039B9B681846FCF788FBA4
:103EE000039BDB681846FCF783FB039B586807239A
:103EF00000220021FFF778FA039B586810230093F3
:103F0000012300220021FFF725FC039B5B68184674
:103F1000FFF782F9039800F037F80398FFF750FF96
:103F200023461946024802F0F9FC00BF04B010BD58
:103F3000B13E010010B582B0744601902346194687
:103F40000E4802F0D7FC022300224FF400510198E2
:103F5000FCF75CFC0323002209490198FCF756FC9E
:103F60000323002207490198FCF750FC2346194619
:103F7000024802F0D3FC00BF02B010BD353F010083
:103F80007F0021000700220010B582B07446019026
:103F900023461946094802F0ADFC019B683340F204
:103FA000C1620021184608F0C7FC234619460348A1
:103FB00002F0B4FC00BF02B010BD00BF893F010099
:103FC00010B58CB074460390029101920093234681
:103FD00019461F4802F08EFC019B03F007030B9368
:103FE000019BDB100A9301220B9B02FA03F3DB43D4
:103FF00009939DF80230002B14BF012300238DF894
:1040000023309DF823200B9B02FA03F307930A9AAF
:1040100013465B0113449B001344029A1344683314
:10402000039A13440693069B1B781A46099B134078
:10403000079A13430593059BDAB2069B1A70234631
:104040001946034802F06AFC00BF0CB010BD00BF67
:10405000C13F010010B584B0744601902346194653
:10406000184802F047FC0198FFF764FF0023039310
:10407000039B072B1ED800230293029B7F2B15D88E
:104080000199039A13465B0113449B001344CA1819
:10409000029B134468331B781946012301220198BF
:1040A000FCF7B4FB029B01330293E6E7039B013369
:1040B0000393DDE723461946024802F02FFC00BFB8
:1040C00004B010BD5540010030B583B07546019075
:1040D00000912B4619461E4802F00CFC019B009AE9
:1040E0001A60019B04331846FFF736FD019B00223E
:1040F0009A60019B0022DA60009B1B681B68009895
:1041000098470246019B9A60009B1B6804331B681A
:10411000009898470246019BDA60009B1B680833B1
:104120001B68019C0098984703461A462271C3F306
:1041300007226271C3F30743A371019C2B46194602
:10414000034802F0EBFB2346184603B030BD00BF26
:10415000C940010010B58EB07446079006910592D3
:104160008DF8133023461946374802F0C3FB9DF8FB
:1041700013300B93079A0AAB043212681146198068
:104180000233120C1A7009A8012302930123019330
:1041900000230093002300220021FFF793FC00235B
:1041A0000D930D9B072B3DDC00230C930C9B072BE1
:1041B00034DC264A0B9BDB001A440D9B13441B780E
:1041C0001A460C9B42FA03F303F00103002B09D0BB
:1041D000079B04330AAA1268114619800233120C95
:1041E0001A700CE09DF84030002B08D0079B043378
:1041F00009AA1268114619800233120C1A70069A25
:104200000C9B13441946059A0D9B13441A460798B4
:1042100000F01EF80C9B01330C93C7E70D9B013394
:104220000D93BEE7079B04330AAA12681146198052
:104230000233120C1A7023461946034802F06EFB33
:1042400000BF0EB010BD00BF554101007800001046
:1042500030B585B075460390029101922B46194600
:10426000104802F047FB039B9B68029A9A4210D8C1
:10427000039BDB68019A9A420BD8039B1868039B47
:104280001B681B681C331C680299019A039B5B68BE
:10429000A0472B461946034802F040FB00BF05B07B
:1042A00030BD00BF514201000EB430B5C6B07546F6
:1042B00001AB18602B461946504802F01BFB4AAA76
:1042C00002AB1A6002AB03A81B68499A4FF48071D5
:1042D00004F0D4FA0346449300234593459A449B43
:1042E0009A4253D203AA459B13441B788DF80F3191
:1042F0009DF80F310A2B0ED101AB1B680022C3F8C9
:10430000402701AB1B68D3F83C375A1C01AB1B6834
:10431000C3F83C2736E001AB1B68D3F83C2701AB60
:104320001B68D3F84437134403F0070201AB1B6842
:10433000D3F8403701A9096812010A44134403F570
:10434000E9639DF80F211A7001AB1B68D3F8403761
:104350005A1C01AB1B68C3F8402701AB1B68D3F89C
:1043600040370F2B0DD901AB1B680022C3F8402743
:1043700001AB1B68D3F83C375A1C01AB1B68C3F870
:104380003C2700BF459B01334593A7E701AB186865
:1043900000F05AF801AB1B68D3F83C37072B1FD944
:1043A00001AB1B68D3F84437013303F0070201ABBC
:1043B0001B68C3F8442701AB1B680722C3F83C27DE
:1043C00001AB1B68D3F83C2701AB1B68D3F844371B
:1043D000134403F0070201AB1146186800F082F89D
:1043E000459C2B461946054802F098FA2346184684
:1043F00046B0BDE8304003B0704700BFA94201009D
:1044000030B585B075460390029101922B4619464E
:104410000C4802F06FFA039B029AC3F84027039BF3
:10442000019AC3F83C27039B0022C3F84427039C4E
:104430002B461946034802F071FA2346184605B088
:1044400030BD00BF0144010030B589B0754603900E
:104450002B461946224802F04DFA00230793079B8A
:10446000072B2CD800230693069B0F2B23D8069BE3
:10447000DB000593079BDB000493039B03F22C7086
:104480000599049C039BD3F84427079B134403F02E
:104490000703039A1B011A44069B134403F5E963BF
:1044A0001A780123009313462246FFF753FE069B1A
:1044B00001330693D8E7079B01330793CFE7039BAC
:1044C00003F22C731846FCF70FFA039C2B4619468F
:1044D000034802F023FA2346184609B030BD00BF56
:1044E0004944010010B584B0744601900091234600
:1044F00019460F4802F0FEF900230393039B0F2B8C
:104500000DD8019A009B1B011A44039B134403F529
:10451000E96320221A70039B01330393EEE72346DD
:104520001946034802F0FAF900BF04B010BD00BFFD
:10453000E544010010B582B0744601902346194647
:10454000114802F0D7F9019B03F22C731846FCF7CF
:10455000E7F9019B03F5E96380220021184608F082
:10456000EBF9002200210198FFF74AFF019B03F2BB
:104570002C731846FCF7B8F923461946024802F096
:10458000CDF900BF02B010BD3545010030B583B094
:10459000754601902B461946164802F0ABF9019B6F
:1045A0001846FFF763FB019B03F22C73019A114637
:1045B0001846FFF789FD019B0022C3F83C27019BA9
:1045C0000022C3F84027019B0022C3F84427019B27
:1045D00003F5E96380220021184608F0ADF9019C3B
:1045E0002B461946034802F099F92346184603B0B2
:1045F00030BD00BF8D45010030B583B075460190D8
:104600002B461946164802F075F9019B02221A70D2
:10461000019B01225A70019B04229A70019B002287
:10462000DA70019B0A221A71019BFA22DA80019B3F
:1046300064221A81019B28225A81019B40F20112B7
:104640009A81019B10331846FFF7A0FF019C2B466F
:104650001946034802F062F92346184603B030BDFC
:10466000F945010010B5744623461946244802F066
:1046700041F9244B1B78012B0DD0022B1FD0002BAE
:104680002DD1204BDB78013BDAB21E4BDA701D4B8B
:1046900002229A7027E01B4B5B890A3B002B04DA4D
:1046A000184B1A89174B5A8105E0164B5B890A3B58
:1046B0009AB2144B5A81134B01229A7013E0114B9A
:1046C0005B78002B06D0012B00D00CE00D4B0022B4
:1046D0005A7003E00B4B01225A7000BF03E0094BF4
:1046E00004229A7000BF084BDB68074A43F000536E
:1046F000D36023461946024802F010F900BF10BDEE
:1047000065460100BC0800108080024010B5744668
:10471000234619461C4802F0EDF81C4B1B78002B71
:1047200002D0012B0AD01DE0184BDB780133DAB23E
:10473000164BDA70154B03229A7017E0134B5B8906
:104740000A33002B04DA114BDA88104B5A8105E04A
:104750000E4B5B890A339AB20C4B5A810B4B0022E9
:104760009A7003E0094B04229A7000BF084BDB6883
:10477000074A43F08043D36023461946024802F0BB
:10478000CDF800BF10BD00BF0D470100BC080010F0
:104790008080024010B5744623461946314802F025
:1047A000A9F8314B1B78012B1DD0022B34D0002BE4
:1047B00000D04FE02D4800F0DBFD0346002B44D035
:1047C00001212B48FEF70CFB00212948FEF708FBCE
:1047D0002848FFF7AFFE28492648FFF765FD224B22
:1047E00001221A7031E0214800F0C2FD0346002B7F
:1047F0002DD001211E48FEF7F3FA00211C48FEF7D8
:10480000AFFA1C48FFF796FE1C491A48FFF74CFD0B
:10481000154B02221A701AE0144800F0A9FD034655
:10482000002B16D001211248FEF79AFA00211048F9
:10483000FEF796FA0F48FFF77DFE11490D48FFF786
:1048400033FD094B00221A7003E000BF02E000BFF5
:1048500000E000BF23461946024802F05FF800BF9F
:1048600010BD00BF95470100BC08001000270010D4
:1048700078040010CC08001074D301008CD3010020
:10488000A4D3010000B585B07346019019467B485A
:1048900002F030F8002303937948FFF74BFE794B81
:1048A000DB781B0203F5FB63764A13441A4676490C
:1048B0007348FFF7F9FC734B01225A70734B5A6926
:1048C000724BDB689A42E7D0714B4FF4006271493A
:1048D0006E4807F0F7FA704B1B783F2B00F2C98047
:1048E0006D4B1B789BB25B019AB26C4B1A8065488A
:1048F000FCF73AFA034683F00103DBB2002B00D049
:10490000F5E7664B1B88202262495E48FCF750F9A8
:10491000614B1B780133DAB25F4B1A70594B5B78ED
:10492000002B00F09F80012B40F0A280554B9B781C
:10493000032B00F2958001A252F823F04D490100AB
:104940006D4901008D490100F54901004D4B5A891F
:104950004C4B9B8912FB03F39BB21A460B2149482F
:10496000FCF7D8F8474B04229A707AE0454B5A89F5
:10497000444B9B8912FB03F39BB21A460B2141481F
:10498000FCF7C8F83F4B04229A706AE03D4BDB7895
:10499000002B04D13B4B1A793A4BDA7005E0394BC6
:1049A000DB78013BDAB2374BDA70384807F058FC55
:1049B0003448FCF76FF9334BDB781B0203F5FB63DC
:1049C000304A134401221946304807F0DFF82C48DA
:1049D000FFF7B0FD2B4BDB781B0203F5FB63294A85
:1049E00013441A462E492648FFF75EFC254B042245
:1049F0009A7036E0234BDB780133224A12799342D6
:104A000003DB204B0022DA7005E01E4BDB7801331C
:104A1000DAB21C4BDA701D4807F022FC1948FCF78B
:104A200039F9184BDB781B0203F5FB63154A134475
:104A300001221946154807F0A9F81148FFF77AFD39
:104A4000104BDB781B0203F5FB630E4A13441A4636
:104A500013490B48FFF728FC0A4B04229A7000E028
:104A600000BF05E0074B5B78002B00D1FAE700BFE1
:104A700031E7094B00221A7020E700BF854801008A
:104A8000CC080010BC080010BCD30100C41C0010EE
:104A9000EC1E0010F41E0010F01E0010F21E00109C
:104AA000CCD3010000B589B0734619463C4801F0EB
:104AB00021FF3C48FBF776FF03468DF81F3039484D
:104AC000FCF7B2F83848FEF713F9012237493848A5
:104AD00000F0FEFC01223749374800F0F9FC00F0F5
:104AE000DDFC00F0DBFC00223449354807F000F81B
:104AF00003461A46334B1A70324B1B78002B0BD1EE
:104B000005AB2F221A8005AB19462648FCF748F959
:104B100003461A462B4B1A70224BDB781B0203F517
:104B2000FB63204A134401221946274807F02EF858
:104B300003461A46234B1A70224B1B78002B2DD1AB
:104B40001848FCF711F9034683F00103DBB2002B90
:104B500000D0F5E71D4B02931D4B039301238DF805
:104B6000103002A84FF0FF331A4A1B49FDF74CFBE7
:104B700002A8002303221849FDF7F8FB0023019344
:104B80000523009300234FF480621449144801F078
:104B900092FF02F0BFF8134801F07CFEFEE700BF71
:104BA000A54A0100BC080010780400106546010009
:104BB000F82600100D470100FC260010DCD3010090
:104BC000941A0010F4260010C41C0010F0D6010046
:104BD00004D701009547010040420F00E0D30100D7
:104BE00085480100E8D3010010B5744623461946F4
:104BF0000A4801F07FFE0020FDF7EEFA03461A4650
:104C0000074B53F82230984700F022F92346194603
:104C1000024801F083FE00BF10BD00BFE94B010058
:104C2000AC07001010B57446234619460A4801F037
:104C300061FE0120FDF7D0FA03461A46074B53F8F0
:104C40002230984700F054F923461946024801F0F3
:104C500065FE00BF10BD00BF254C0100AC07001071
:104C600010B57446234619460A4801F043FE022057
:104C7000FDF7B2FA03461A46074B53F8223098471D
:104C800000F086F923461946024801F047FE00BFAE
:104C900010BD00BF614C0100AC07001010B5744698
:104CA000234619460A4801F025FE0320FDF794FA31
:104CB00003461A46074B53F82230984700F0B8F9DC
:104CC00023461946024801F029FE00BF10BD00BF6F
:104CD0009D4C0100AC07001030B583B075460190C3
:104CE00000912B4619460A4801F004FE0122009B60
:104CF00002FA03F31A46019B42EA03042B461946C3
:104D0000034801F00BFE2346184603B030BD00BF38
:104D1000D94C010030B589B07546039001920093DB
:104D20000B468DF80B302B461946164801F0E2FD74
:104D30004FF0FF33079320230693009BC3F120031A
:104D40004FF0FF3222FA03F30593059A019B02FA12
:104D500003F3DB43039A134003939DF80B20059B59
:104D60001A40019B02FA03F3039A13430393039C33
:104D70002B461946034801F0D1FD2346184609B0D9
:104D800030BD00BF154D010030B589B075460390A8
:104D9000029101922B4619460F4801F0ABFD4FF0EE
:104DA000FF33079320230693019BC3F120034FF0A9
:104DB000FF3222FA03F30593039A029BDA40059B24
:104DC00002EA03042B461946034801F0A7FD2346D7
:104DD000184609B030BD00BF894D010030B589B01B
:104DE00075460390019200930B468DF80B302B46CD
:104DF0001946164801F07EFD4FF0FF33079320233C
:104E00000693009BC3F120034FF0FF3222FA03F315
:104E10000593059A019B02FA03F3DB43039A1340BF
:104E200003939DF80B20059B1A40019B02FA03F3A4
:104E3000039A13430393039C2B461946034801F03E
:104E40006DFD2346184609B030BD00BFDD4D0100A1
:104E500010B582B0744623461946234801F04AFD36
:104E600000238DF807309DF80730204A52F8233090
:104E70001A689DF807301D4951F8233042F00102AD
:104E80001A609DF80730194A52F823301A689DF8C5
:104E90000730164951F8233042F002021A609DF89B
:104EA0000730124A52F823301A689DF807300F492C
:104EB00051F8233042F004021A609DF807300B4A83
:104EC00052F823301A689DF80730084951F823300A
:104ED00042F008021A6023461946034801F01EFDFD
:104EE00000BF02B010BD00BF514E01000400001011
:104EF00010B582B0744623461946234801F0FAFCE7
:104F000001238DF807309DF80730204A52F82330EE
:104F10001A689DF807301D4951F8233042F001020C
:104F20001A609DF80730194A52F823301A689DF824
:104F30000730164951F8233042F002021A609DF8FA
:104F40000730124A52F823301A689DF807300F498B
:104F500051F8233042F004021A609DF807300B4AE2
:104F600052F823301A689DF80730084951F8233069
:104F700042F008021A6023461946034801F0CEFCAD
:104F800000BF02B010BD00BFF14E010004000010D0
:104F900010B582B0744623461946234801F0AAFC96
:104FA00002238DF807309DF80730204A52F823304D
:104FB0001A689DF807301D4951F8233042F001026C
:104FC0001A609DF80730194A52F823301A689DF884
:104FD0000730164951F8233042F002021A609DF85A
:104FE0000730124A52F823301A689DF807300F49EB
:104FF00051F8233042F004021A609DF807300B4A42
:1050000052F823301A689DF80730084951F82330C8
:1050100042F008021A6023461946034801F07EFC5C
:1050200000BF02B010BD00BF914F0100040000108E
:1050300010B582B0744623461946234801F05AFC45
:1050400003238DF807309DF80730204A52F82330AB
:105050001A689DF807301D4951F8233042F00102CB
:105060001A609DF80730194A52F823301A689DF8E3
:105070000730164951F8233042F002021A609DF8B9
:105080000730124A52F823301A689DF807300F494A
:1050900051F8233042F004021A609DF807300B4AA1
:1050A00052F823301A689DF80730084951F8233028
:1050B00042F008021A6023461946034801F02EFC0C
:1050C00000BF02B010BD00BF31500100040000104D
:1050D00010B582B0744601900091234619464348AA
:1050E00001F008FC019B012B77D1009B4FF6FF726A
:1050F000934272D13E4B1B6803F00103002B52D147
:105100003B4B01221A603B4B1B6818333A4A136031
:10511000384B1B681C33384A5360364B1B682033AE
:10512000354A9360334B1B682433334AD360314B89
:105130005B681833304A13612E4B5B681C332E4A70
:1051400053612C4B5B6820332B4A9361294B5B687E
:105150002433294AD361274B9B681833264A1362AC
:10516000244B9B681C33244A5362224B9B68203398
:10517000214A93621F4B9B6824331F4AD3621D4B05
:10518000DB6818331C4A13631A4BDB681C331A4A5A
:105190005363184BDB682033174A9363154BDB6866
:1051A0002433154AD3631548FFF726FA1D22002140
:1051B0001348FBF7DBF81E2200211248FBF7D6F854
:1051C0000F2201211048FBF7D1F8132201210F48CB
:1051D000FBF7CCF80E48FFF7D9F9234619460348E8
:1051E00001F09CFB00BF02B010BD00BFD150010018
:1051F000A807001004000010E8060010BC0800100A
:10520000F8260010FC2600100027001004270010CC
:105210000827001010B5744623461946064801F0C9
:1052200069FB4FF6FF710120FFF752FF2346194635
:10523000014801F073FB10BD1552010010B582B09A
:105240007446019023461946104801F053FB019B18
:105250001B781A460E4B53F822301A68019B5B7874
:10526000194601238B40DB431946019B1B781846E6
:10527000074B53F820300A401A602346194603486A
:1052800001F04CFB00BF02B010BD00BF3D52010059
:10529000CC04001010B582B0744601902346194624
:1052A0000F4801F027FB019B1B781A460D4B53F862
:1052B00022301A68019B5B78194601238B401946FE
:1052C000019B1B781846074B53F820300A431A609D
:1052D00023461946024801F021FB00BF02B010BD71
:1052E00095520100CC04001010B582B074460190B4
:1052F000234619460B4801F0FDFA019B5B781A46DC
:10530000012303FA02F2019B1B781946064B53F85E
:1053100021309A6123461946024801F0FFFA00BF86
:1053200002B010BDE9520100CC04001010B582B0EB
:1053300074460190234619460B4801F0DBFA019BA5
:105340005B781A46012303FA02F2019B1B78194687
:10535000064B53F82130DA6123461946024801F022
:10536000DDFA00BF02B010BD2D530100CC040010C7
:1053700030B583B0754601902B4619460E4801F0B2
:10538000B9FA019B1B781A460C4B53F822305B6923
:10539000019A5278114601228A401340002B14BF13
:1053A00001230023DCB22B461946034801F0B6FA6C
:1053B0002346184603B030BD71530100CC040010E1
:1053C00010B582B0744623461946314801F092FA6E
:1053D00000238DF807302F4B9A682E4B5B681343E0
:1053E000002B14BF01230023DBB2002B24D00023A9
:1053F0008DF80730274B5A68264B9B68134393FA66
:10540000A3F3B3FA83F38DF80630224BDB689DF8E3
:105410000620012101FA02F2D24311461D4A0B4037
:10542000D3609DF807209DF806301B4952011344B4
:1054300051F82330984723E002238DF80730154BAD
:105440005A6A144B9B6A134393FAA3F3B3FA83F398
:105450008DF806300F4BDB6A9DF80620012101FA1A
:1054600002F2D24311460B4A0B40D3629DF807204B
:105470009DF8063008495201134451F823309847EB
:1054800023461946024801F049FA00BF02B010BD98
:10549000C153010080800240D02E001010B5744628
:1054A00023461946084801F025FA4FF0FF33012240
:1054B0000649262001F0CAF823461946024801F0A1
:1054C0002DFA00BF10BD00BF9D540100C153010063
:1054D00010B584B074460390029101922346194698
:1054E0005F4801F007FA039B1B781846039B5B7823
:1054F0001A465C4943011344029A41F82320019B58
:10550000012B1BD1039B1B78002B0BD1564B1B6926
:10551000039A5278114601228A401146524A0B439F
:10552000136194E0504B1B6B039A52781146012291
:105530008A4011464C4A0B43136388E0019B022BBF
:105540001BD1039B1B78002B0BD1474B5B69039A44
:105550005278114601228A401146434A0B43536157
:1055600075E0414B5B6B039A5278114601228A40E9
:1055700011463D4A0B43536369E0019B032B31D134
:10558000039B1B78002B16D1374B5B69039A52782B
:10559000114601228A401146334A0B435361324B74
:1055A0001B69039A5278114601228A4011462E4AFD
:1055B0000B4313614BE02C4B5B6B039A5278114603
:1055C00001228A401146284A0B435363264B1B6B2A
:1055D000039A5278114601228A401146224A0B430F
:1055E000136334E0039B1B78002B18D11E4B5B69BF
:1055F000039A5278114601228A40D24311461A4A30
:105600000B405361184B1B69039A527811460122D3
:105610008A40D2431146144A0B40136117E0124BE3
:105620005B6B039A5278114601228A40D24311469D
:105630000D4A0B4053630C4B1B6B039A5278114677
:1056400001228A40D2431146074A0B401363234686
:105650001946034801F062F900BF04B010BD00BF55
:10566000D1540100D02E00108080024010B582B0CD
:105670007446019023461946064801F03BF9064A54
:10568000019B136023461946024801F047F900BF09
:1056900002B010BD6D5601000000001010B5744638
:1056A000234619460A4801F025F90A4B1B680022D7
:1056B0005A60084B1B6800229A60064B1B68002248
:1056C0001A6023461946024801F028F900BF10BDB0
:1056D0009D560100E404001010B574462346194697
:1056E000084801F007F9084B1B68002B02D0064B55
:1056F0001B68984723461946024801F00FF900BF7E
:1057000010BD00BFD9560100D02F001010B582B0D7
:1057100074460190009123461946074801F0EAF8C3
:10572000064A009B136023461946034801F0F6F829
:1057300000BF02B010BD00BF0D570100D02F0010F8
:1057400030B585B0754601902B461946204801F0CA
:10575000D1F800238DF80F301E4B1B685B68002BBF
:1057600014BF01230023DBB2002B1ED0194B1B6892
:1057700000229A60174B1B681A68164B1B6842F090
:1057800002021A60134B1B681A68124B1B6842F026
:1057900001021A600F4B1B681A680E4B1B6842F01F
:1057A00004021A6001238DF80F304FF0FF330122FD
:1057B00009494FF0FF3000F049FF9DF80F402B469C
:1057C0001946034801F0AAF82346184605B030BD33
:1057D00041570100E4040010D956010030B585B0EE
:1057E0007546019000912B4619461F4801F082F83A
:1057F000009B012B01D800242DE0019B1A1D019B69
:105800005B680C331B68104698470246009BB2FB4E
:10581000F3F3013B0393019B1A1D019B5B680C335F
:105820001B68104698470346009AB3FBF2F20099B2
:1058300001FB02F29B1A0293039BB3F1807F05D315
:105840006FF07F4303936FF07F430293074B1B6816
:10585000039A5A60029C2B461946034801F05EF8F1
:105860002346184605B030BDDD570100E4040010A2
:1058700010B5744623461946044801F03BF8234608
:105880001946024801F04AF800BF10BD71580100E6
:1058900010B588B0744601900091234619462D48F2
:1058A00001F028F880238DF81F30009B07EE903A16
:1058B000F8EE677ACDED067A02AB9DED060A019906
:1058C000184600F02DFB029B1B0A8DF81730029B37
:1058D0008DF81630049BDBB21B01DAB2039BDBB2FE
:1058E00003F00F03DBB213438DF81530019B1B7AD5
:1058F0001A46194B53F8223080221A73019B1B7AE7
:105900001A46154B53F822309DF817201A71019B47
:105910001B7A1A46104B53F822309DF816201A7045
:10592000019B1B7A1A460C4B53F822309DF8152028
:1059300083F82820019B1B7A1A46074B53F8223024
:1059400003221A7323461946024800F0E7FF00BFFE
:1059500008B010BD91580100E804001030B585B0C2
:105960007546019000912B461946304800F0C2FF61
:1059700007238DF80F30019B181D019B5B681433C2
:105980001B68019A127A920029490A4411469847E5
:10599000019B1869019B1B691B681B68019A127A9D
:1059A0001146244A525C11469847019BD868019BD6
:1059B000DB681B681B68019A127A11461E4A525C0A
:1059C00011469847019B1A69019B1B691B680433A8
:1059D0001B68022110469847019BDA68019BDB682F
:1059E0001B6804331B6802211046984700990198F0
:1059F000FFF74EFF019B1B7A1A46104B53F82230DB
:105A00001B7ADAB2019B1B7A19460C4B53F82130F2
:105A100042F00702D2B21A7201242B4619460348FB
:105A200000F07CFF2346184605B030BD5D590100EB
:105A300070E001006CE0010068E00100E804001083
:105A400030B583B0754601902B4619460D4800F0DD
:105A500051FF019B1B681B7A1A460B4B53F82230EF
:105A60001B7DDBB203F02003002B14BF01230023B6
:105A7000DCB22B461946034800F050FF2346184677
:105A800003B030BD415A0100E80400102DE9304850
:105A90008AB0754601900B468DF803302B461946A7
:105AA000314800F027FF019B1B7A1A462F4B53F811
:105AB00022309DF803201A70019B04934FF0FF33AE
:105AC0004FF0FF34CDE90834049B03932B4619466D
:105AD000274800F00FFF4FF000034FF00004CDE91E
